{
  "contractName": "Billige",
  "abi": [
    {
      "inputs": [],
      "stateMutability": "nonpayable",
      "type": "constructor"
    },
    {
      "anonymous": false,
      "inputs": [
        {
          "indexed": false,
          "internalType": "address",
          "name": "_buyer",
          "type": "address"
        },
        {
          "indexed": false,
          "internalType": "uint256",
          "name": "_id",
          "type": "uint256"
        }
      ],
      "name": "LogBuyProduct",
      "type": "event"
    },
    {
      "anonymous": false,
      "inputs": [
        {
          "indexed": false,
          "internalType": "address",
          "name": "_manager",
          "type": "address"
        },
        {
          "indexed": false,
          "internalType": "uint256",
          "name": "_id",
          "type": "uint256"
        }
      ],
      "name": "LogCancelProduct",
      "type": "event"
    },
    {
      "anonymous": false,
      "inputs": [
        {
          "indexed": false,
          "internalType": "address",
          "name": "_buyer",
          "type": "address"
        },
        {
          "indexed": false,
          "internalType": "uint256",
          "name": "_id",
          "type": "uint256"
        }
      ],
      "name": "LogDecideCancel",
      "type": "event"
    },
    {
      "anonymous": false,
      "inputs": [
        {
          "indexed": false,
          "internalType": "address",
          "name": "_buyer",
          "type": "address"
        },
        {
          "indexed": false,
          "internalType": "uint256",
          "name": "_id",
          "type": "uint256"
        }
      ],
      "name": "LogDecidePayment",
      "type": "event"
    },
    {
      "anonymous": false,
      "inputs": [
        {
          "indexed": false,
          "internalType": "address",
          "name": "_manager",
          "type": "address"
        },
        {
          "indexed": false,
          "internalType": "uint256",
          "name": "_id",
          "type": "uint256"
        }
      ],
      "name": "LogPaymentProduct",
      "type": "event"
    },
    {
      "inputs": [
        {
          "internalType": "uint256",
          "name": "",
          "type": "uint256"
        }
      ],
      "name": "buyerInfo",
      "outputs": [
        {
          "internalType": "address",
          "name": "buyerAddress",
          "type": "address"
        },
        {
          "internalType": "bytes32",
          "name": "user_name",
          "type": "bytes32"
        },
        {
          "internalType": "bytes32",
          "name": "user_nickname",
          "type": "bytes32"
        },
        {
          "internalType": "bytes32",
          "name": "user_email",
          "type": "bytes32"
        },
        {
          "internalType": "bytes32",
          "name": "user_address",
          "type": "bytes32"
        },
        {
          "internalType": "bytes32",
          "name": "user_bli",
          "type": "bytes32"
        }
      ],
      "stateMutability": "view",
      "type": "function"
    },
    {
      "inputs": [
        {
          "internalType": "uint256",
          "name": "",
          "type": "uint256"
        }
      ],
      "name": "buyers",
      "outputs": [
        {
          "internalType": "address",
          "name": "",
          "type": "address"
        }
      ],
      "stateMutability": "view",
      "type": "function"
    },
    {
      "inputs": [
        {
          "internalType": "uint256",
          "name": "",
          "type": "uint256"
        }
      ],
      "name": "decideCancelInfo",
      "outputs": [
        {
          "internalType": "address",
          "name": "buyerAddress",
          "type": "address"
        },
        {
          "internalType": "uint256",
          "name": "date",
          "type": "uint256"
        }
      ],
      "stateMutability": "view",
      "type": "function"
    },
    {
      "inputs": [
        {
          "internalType": "uint256",
          "name": "",
          "type": "uint256"
        }
      ],
      "name": "decideCancels",
      "outputs": [
        {
          "internalType": "address",
          "name": "",
          "type": "address"
        }
      ],
      "stateMutability": "view",
      "type": "function"
    },
    {
      "inputs": [
        {
          "internalType": "uint256",
          "name": "",
          "type": "uint256"
        }
      ],
      "name": "decidePaymentInfo",
      "outputs": [
        {
          "internalType": "address",
          "name": "buyerAddress",
          "type": "address"
        },
        {
          "internalType": "uint256",
          "name": "date",
          "type": "uint256"
        }
      ],
      "stateMutability": "view",
      "type": "function"
    },
    {
      "inputs": [
        {
          "internalType": "uint256",
          "name": "",
          "type": "uint256"
        }
      ],
      "name": "decidePayments",
      "outputs": [
        {
          "internalType": "address",
          "name": "",
          "type": "address"
        }
      ],
      "stateMutability": "view",
      "type": "function"
    },
    {
      "inputs": [
        {
          "internalType": "uint256",
          "name": "",
          "type": "uint256"
        }
      ],
      "name": "doCancelInfo",
      "outputs": [
        {
          "internalType": "address",
          "name": "managerAddress",
          "type": "address"
        },
        {
          "internalType": "uint256",
          "name": "date",
          "type": "uint256"
        }
      ],
      "stateMutability": "view",
      "type": "function"
    },
    {
      "inputs": [
        {
          "internalType": "uint256",
          "name": "",
          "type": "uint256"
        }
      ],
      "name": "doCancels",
      "outputs": [
        {
          "internalType": "address",
          "name": "",
          "type": "address"
        }
      ],
      "stateMutability": "view",
      "type": "function"
    },
    {
      "inputs": [
        {
          "internalType": "uint256",
          "name": "",
          "type": "uint256"
        }
      ],
      "name": "doPaymentInfo",
      "outputs": [
        {
          "internalType": "address",
          "name": "managerAddress",
          "type": "address"
        },
        {
          "internalType": "uint256",
          "name": "date",
          "type": "uint256"
        }
      ],
      "stateMutability": "view",
      "type": "function"
    },
    {
      "inputs": [
        {
          "internalType": "uint256",
          "name": "",
          "type": "uint256"
        }
      ],
      "name": "doPayments",
      "outputs": [
        {
          "internalType": "address",
          "name": "",
          "type": "address"
        }
      ],
      "stateMutability": "view",
      "type": "function"
    },
    {
      "inputs": [],
      "name": "owner",
      "outputs": [
        {
          "internalType": "address",
          "name": "",
          "type": "address"
        }
      ],
      "stateMutability": "view",
      "type": "function"
    },
    {
      "inputs": [
        {
          "internalType": "uint256",
          "name": "",
          "type": "uint256"
        }
      ],
      "name": "sellerInfo",
      "outputs": [
        {
          "internalType": "address",
          "name": "sellerAddress",
          "type": "address"
        },
        {
          "internalType": "bytes32",
          "name": "user_name",
          "type": "bytes32"
        },
        {
          "internalType": "bytes32",
          "name": "user_nickname",
          "type": "bytes32"
        },
        {
          "internalType": "bytes32",
          "name": "user_email",
          "type": "bytes32"
        },
        {
          "internalType": "bytes32",
          "name": "user_address",
          "type": "bytes32"
        }
      ],
      "stateMutability": "view",
      "type": "function"
    },
    {
      "inputs": [
        {
          "internalType": "uint256",
          "name": "",
          "type": "uint256"
        }
      ],
      "name": "sellers",
      "outputs": [
        {
          "internalType": "address",
          "name": "",
          "type": "address"
        }
      ],
      "stateMutability": "view",
      "type": "function"
    },
    {
      "inputs": [
        {
          "internalType": "uint256",
          "name": "_id",
          "type": "uint256"
        },
        {
          "internalType": "bytes32",
          "name": "_name",
          "type": "bytes32"
        },
        {
          "internalType": "bytes32",
          "name": "_nickname",
          "type": "bytes32"
        },
        {
          "internalType": "bytes32",
          "name": "_email",
          "type": "bytes32"
        },
        {
          "internalType": "bytes32",
          "name": "_address",
          "type": "bytes32"
        },
        {
          "internalType": "bytes32",
          "name": "_bli",
          "type": "bytes32"
        }
      ],
      "name": "buyProduct",
      "outputs": [],
      "stateMutability": "payable",
      "type": "function"
    },
    {
      "inputs": [
        {
          "internalType": "uint256",
          "name": "_id",
          "type": "uint256"
        },
        {
          "internalType": "uint256",
          "name": "_date",
          "type": "uint256"
        }
      ],
      "name": "decidePayProduct",
      "outputs": [],
      "stateMutability": "nonpayable",
      "type": "function"
    },
    {
      "inputs": [
        {
          "internalType": "uint256",
          "name": "_id",
          "type": "uint256"
        },
        {
          "internalType": "uint256",
          "name": "_date",
          "type": "uint256"
        }
      ],
      "name": "doPayProduct",
      "outputs": [],
      "stateMutability": "payable",
      "type": "function"
    },
    {
      "inputs": [
        {
          "internalType": "uint256",
          "name": "_id",
          "type": "uint256"
        },
        {
          "internalType": "uint256",
          "name": "_date",
          "type": "uint256"
        }
      ],
      "name": "decideCancelProduct",
      "outputs": [],
      "stateMutability": "nonpayable",
      "type": "function"
    },
    {
      "inputs": [
        {
          "internalType": "uint256",
          "name": "_id",
          "type": "uint256"
        },
        {
          "internalType": "uint256",
          "name": "_date",
          "type": "uint256"
        }
      ],
      "name": "doCancelProduct",
      "outputs": [],
      "stateMutability": "payable",
      "type": "function"
    },
    {
      "inputs": [
        {
          "internalType": "uint256",
          "name": "_id",
          "type": "uint256"
        }
      ],
      "name": "getBuyerInfo",
      "outputs": [
        {
          "internalType": "address",
          "name": "",
          "type": "address"
        },
        {
          "internalType": "bytes32",
          "name": "",
          "type": "bytes32"
        },
        {
          "internalType": "bytes32",
          "name": "",
          "type": "bytes32"
        },
        {
          "internalType": "bytes32",
          "name": "",
          "type": "bytes32"
        },
        {
          "internalType": "bytes32",
          "name": "",
          "type": "bytes32"
        },
        {
          "internalType": "bytes32",
          "name": "",
          "type": "bytes32"
        }
      ],
      "stateMutability": "view",
      "type": "function"
    },
    {
      "inputs": [],
      "name": "getAllBuyers",
      "outputs": [
        {
          "internalType": "address[10]",
          "name": "",
          "type": "address[10]"
        }
      ],
      "stateMutability": "view",
      "type": "function"
    },
    {
      "inputs": [
        {
          "internalType": "uint256",
          "name": "_id",
          "type": "uint256"
        }
      ],
      "name": "getSellerInfo",
      "outputs": [
        {
          "internalType": "address",
          "name": "",
          "type": "address"
        },
        {
          "internalType": "bytes32",
          "name": "",
          "type": "bytes32"
        },
        {
          "internalType": "bytes32",
          "name": "",
          "type": "bytes32"
        },
        {
          "internalType": "bytes32",
          "name": "",
          "type": "bytes32"
        },
        {
          "internalType": "bytes32",
          "name": "",
          "type": "bytes32"
        }
      ],
      "stateMutability": "view",
      "type": "function"
    },
    {
      "inputs": [],
      "name": "getAllSellers",
      "outputs": [
        {
          "internalType": "address[10]",
          "name": "",
          "type": "address[10]"
        }
      ],
      "stateMutability": "view",
      "type": "function"
    },
    {
      "inputs": [
        {
          "internalType": "uint256",
          "name": "_id",
          "type": "uint256"
        }
      ],
      "name": "getPaymentInfo",
      "outputs": [
        {
          "internalType": "address",
          "name": "",
          "type": "address"
        },
        {
          "internalType": "uint256",
          "name": "",
          "type": "uint256"
        }
      ],
      "stateMutability": "view",
      "type": "function"
    },
    {
      "inputs": [],
      "name": "getAllPayments",
      "outputs": [
        {
          "internalType": "address[10]",
          "name": "",
          "type": "address[10]"
        }
      ],
      "stateMutability": "view",
      "type": "function"
    },
    {
      "inputs": [
        {
          "internalType": "uint256",
          "name": "_id",
          "type": "uint256"
        }
      ],
      "name": "getCancelInfo",
      "outputs": [
        {
          "internalType": "address",
          "name": "",
          "type": "address"
        },
        {
          "internalType": "uint256",
          "name": "",
          "type": "uint256"
        }
      ],
      "stateMutability": "view",
      "type": "function"
    },
    {
      "inputs": [],
      "name": "getAllCancels",
      "outputs": [
        {
          "internalType": "address[10]",
          "name": "",
          "type": "address[10]"
        }
      ],
      "stateMutability": "view",
      "type": "function"
    },
    {
      "inputs": [
        {
          "internalType": "uint256",
          "name": "_id",
          "type": "uint256"
        }
      ],
      "name": "getdoPaymentInfo",
      "outputs": [
        {
          "internalType": "address",
          "name": "",
          "type": "address"
        },
        {
          "internalType": "uint256",
          "name": "",
          "type": "uint256"
        }
      ],
      "stateMutability": "view",
      "type": "function"
    },
    {
      "inputs": [],
      "name": "getAlldoPayments",
      "outputs": [
        {
          "internalType": "address[10]",
          "name": "",
          "type": "address[10]"
        }
      ],
      "stateMutability": "view",
      "type": "function"
    },
    {
      "inputs": [
        {
          "internalType": "uint256",
          "name": "_id",
          "type": "uint256"
        }
      ],
      "name": "getdoCancelInfo",
      "outputs": [
        {
          "internalType": "address",
          "name": "",
          "type": "address"
        },
        {
          "internalType": "uint256",
          "name": "",
          "type": "uint256"
        }
      ],
      "stateMutability": "view",
      "type": "function"
    },
    {
      "inputs": [],
      "name": "getAlldoCancels",
      "outputs": [
        {
          "internalType": "address[10]",
          "name": "",
          "type": "address[10]"
        }
      ],
      "stateMutability": "view",
      "type": "function"
    }
  ],
  "bytecode": "0x608060405234801561001057600080fd5b5033600660006101000a81548173ffffffffffffffffffffffffffffffffffffffff021916908373ffffffffffffffffffffffffffffffffffffffff1602179055506120b3806100616000396000f3fe6080604052600436106101cd5760003560e01c80639b269b8f116100f7578063cee26ed511610095578063e814e3cc11610064578063e814e3cc14610726578063efa7571d14610764578063f2aa8218146107a1578063f8defa3c146107de576101cd565b8063cee26ed51461062b578063d810ff0f14610668578063e2330ea6146106a6578063e377e966146106e4576101cd565b8063b4709ede116100d1578063b4709ede14610546578063bff6ea6514610584578063cbc859b4146105c1578063cdd265c3146105ea576101cd565b80639b269b8f146104b3578063a89eae60146104de578063ad30ee121461051b576101cd565b80634e7147c21161016f5780637ef30a7e1161013e5780637ef30a7e146103f55780638042e8e61461043257806386cba22b1461045d5780638da5cb5b14610488576101cd565b80634e7147c21461032157806353ffed031461034c5780635aee87031461037557806369f872de146103b7576101cd565b80632d0f43b0116101ab5780632d0f43b01461026a57806330c4d5241461028657806336b103ad146102a257806348cb67b1146102e0576101cd565b80630d93c604146101d257806313bde4271461021057806322552bc41461024e575b600080fd5b3480156101de57600080fd5b506101f960048036038101906101f49190611c98565b610809565b604051610207929190611f66565b60405180910390f35b34801561021c57600080fd5b5061023760048036038101906102329190611c98565b6108a2565b604051610245929190611f66565b60405180910390f35b61026860048036038101906102639190611cc1565b61093b565b005b610284600480360381019061027f9190611d4a565b610b81565b005b6102a0600480360381019061029b9190611d4a565b610dbd565b005b3480156102ae57600080fd5b506102c960048036038101906102c49190611c98565b610ff9565b6040516102d7929190611f66565b60405180910390f35b3480156102ec57600080fd5b5061030760048036038101906103029190611c98565b61103d565b604051610318959493929190611eb2565b60405180910390f35b34801561032d57600080fd5b50610336611093565b6040516103439190611f8f565b60405180910390f35b34801561035857600080fd5b50610373600480360381019061036e9190611d4a565b611114565b005b34801561038157600080fd5b5061039c60048036038101906103979190611c98565b6112ae565b6040516103ae96959493929190611f05565b60405180910390f35b3480156103c357600080fd5b506103de60048036038101906103d99190611c98565b611394565b6040516103ec929190611f66565b60405180910390f35b34801561040157600080fd5b5061041c60048036038101906104179190611c98565b61142d565b6040516104299190611e97565b60405180910390f35b34801561043e57600080fd5b50610447611463565b6040516104549190611f8f565b60405180910390f35b34801561046957600080fd5b506104726114e4565b60405161047f9190611f8f565b60405180910390f35b34801561049457600080fd5b5061049d611565565b6040516104aa9190611e97565b60405180910390f35b3480156104bf57600080fd5b506104c861158b565b6040516104d59190611f8f565b60405180910390f35b3480156104ea57600080fd5b5061050560048036038101906105009190611c98565b61160c565b6040516105129190611e97565b60405180910390f35b34801561052757600080fd5b50610530611642565b60405161053d9190611f8f565b60405180910390f35b34801561055257600080fd5b5061056d60048036038101906105689190611c98565b6116c3565b60405161057b929190611f66565b60405180910390f35b34801561059057600080fd5b506105ab60048036038101906105a69190611c98565b611707565b6040516105b89190611e97565b60405180910390f35b3480156105cd57600080fd5b506105e860048036038101906105e39190611d4a565b61173d565b005b3480156105f657600080fd5b50610611600480360381019061060c9190611c98565b6118d7565b604051610622959493929190611eb2565b60405180910390f35b34801561063757600080fd5b50610652600480360381019061064d9190611c98565b6119ab565b60405161065f9190611e97565b60405180910390f35b34801561067457600080fd5b5061068f600480360381019061068a9190611c98565b6119e1565b60405161069d929190611f66565b60405180910390f35b3480156106b257600080fd5b506106cd60048036038101906106c89190611c98565b611a7a565b6040516106db929190611f66565b60405180910390f35b3480156106f057600080fd5b5061070b60048036038101906107069190611c98565b611abe565b60405161071d96959493929190611f05565b60405180910390f35b34801561073257600080fd5b5061074d60048036038101906107489190611c98565b611b1a565b60405161075b929190611f66565b60405180910390f35b34801561077057600080fd5b5061078b60048036038101906107869190611c98565b611b5e565b6040516107989190611e97565b60405180910390f35b3480156107ad57600080fd5b506107c860048036038101906107c39190611c98565b611b94565b6040516107d59190611e97565b60405180910390f35b3480156107ea57600080fd5b506107f3611bca565b6040516108009190611f8f565b60405180910390f35b6000806000600460008581526020019081526020016000206040518060400160405290816000820160009054906101000a900473ffffffffffffffffffffffffffffffffffffffff1673ffffffffffffffffffffffffffffffffffffffff1673ffffffffffffffffffffffffffffffffffffffff1681526020016001820154815250509050806000015181602001519250925050915091565b6000806000600360008581526020019081526020016000206040518060400160405290816000820160009054906101000a900473ffffffffffffffffffffffffffffffffffffffff1673ffffffffffffffffffffffffffffffffffffffff1673ffffffffffffffffffffffffffffffffffffffff1681526020016001820154815250509050806000015181602001519250925050915091565b6000861015801561094d575060098611155b61098c576040517f08c379a000000000000000000000000000000000000000000000000000000000815260040161098390611fab565b60405180910390fd5b33600787600a81106109c7577f4e487b7100000000000000000000000000000000000000000000000000000000600052603260045260246000fd5b0160006101000a81548173ffffffffffffffffffffffffffffffffffffffff021916908373ffffffffffffffffffffffffffffffffffffffff1602179055506040518060c001604052803373ffffffffffffffffffffffffffffffffffffffff1681526020018681526020018581526020018481526020018381526020018281525060008088815260200190815260200160002060008201518160000160006101000a81548173ffffffffffffffffffffffffffffffffffffffff021916908373ffffffffffffffffffffffffffffffffffffffff1602179055506020820151816001015560408201518160020155606082015181600301556080820151816004015560a08201518160050155905050600660009054906101000a900473ffffffffffffffffffffffffffffffffffffffff1673ffffffffffffffffffffffffffffffffffffffff166108fc349081150290604051600060405180830381858888f19350505050158015610b3f573d6000803e3d6000fd5b507f898aac221e354be15eb61877f81d591e1956daf2d07b79da28acf63aea7f9fd33387604051610b71929190611f66565b60405180910390a1505050505050565b60008210158015610b93575060098211155b610bd2576040517f08c379a0000000000000000000000000000000000000000000000000000000008152600401610bc990611fab565b60405180910390fd5b33603983600a8110610c0d577f4e487b7100000000000000000000000000000000000000000000000000000000600052603260045260246000fd5b0160006101000a81548173ffffffffffffffffffffffffffffffffffffffff021916908373ffffffffffffffffffffffffffffffffffffffff16021790555060405180604001604052803373ffffffffffffffffffffffffffffffffffffffff168152602001828152506005600084815260200190815260200160002060008201518160000160006101000a81548173ffffffffffffffffffffffffffffffffffffffff021916908373ffffffffffffffffffffffffffffffffffffffff16021790555060208201518160010155905050600782600a8110610d18577f4e487b7100000000000000000000000000000000000000000000000000000000600052603260045260246000fd5b0160009054906101000a900473ffffffffffffffffffffffffffffffffffffffff1673ffffffffffffffffffffffffffffffffffffffff166108fc349081150290604051600060405180830381858888f19350505050158015610d7f573d6000803e3d6000fd5b507f9cdfe7e249aa515069029649172a6a944ca8bfd40df07e334f8495f4e5ca47c53383604051610db1929190611f66565b60405180910390a15050565b60008210158015610dcf575060098211155b610e0e576040517f08c379a0000000000000000000000000000000000000000000000000000000008152600401610e0590611fab565b60405180910390fd5b33602f83600a8110610e49577f4e487b7100000000000000000000000000000000000000000000000000000000600052603260045260246000fd5b0160006101000a81548173ffffffffffffffffffffffffffffffffffffffff021916908373ffffffffffffffffffffffffffffffffffffffff16021790555060405180604001604052803373ffffffffffffffffffffffffffffffffffffffff168152602001828152506004600084815260200190815260200160002060008201518160000160006101000a81548173ffffffffffffffffffffffffffffffffffffffff021916908373ffffffffffffffffffffffffffffffffffffffff16021790555060208201518160010155905050601182600a8110610f54577f4e487b7100000000000000000000000000000000000000000000000000000000600052603260045260246000fd5b0160009054906101000a900473ffffffffffffffffffffffffffffffffffffffff1673ffffffffffffffffffffffffffffffffffffffff166108fc349081150290604051600060405180830381858888f19350505050158015610fbb573d6000803e3d6000fd5b507fb818b8a40d821336113c0e6e492eff947d5792115866587815a6f9958b8bc28b3383604051610fed929190611f66565b60405180910390a15050565b60056020528060005260406000206000915090508060000160009054906101000a900473ffffffffffffffffffffffffffffffffffffffff16908060010154905082565b60016020528060005260406000206000915090508060000160009054906101000a900473ffffffffffffffffffffffffffffffffffffffff16908060010154908060020154908060030154908060040154905085565b61109b611c4b565b6025600a806020026040519081016040528092919082600a801561110a576020028201915b8160009054906101000a900473ffffffffffffffffffffffffffffffffffffffff1673ffffffffffffffffffffffffffffffffffffffff16815260200190600101908083116110c0575b5050505050905090565b60008210158015611126575060098211155b611165576040517f08c379a000000000000000000000000000000000000000000000000000000000815260040161115c90611fab565b60405180910390fd5b33602583600a81106111a0577f4e487b7100000000000000000000000000000000000000000000000000000000600052603260045260246000fd5b0160006101000a81548173ffffffffffffffffffffffffffffffffffffffff021916908373ffffffffffffffffffffffffffffffffffffffff16021790555060405180604001604052803373ffffffffffffffffffffffffffffffffffffffff168152602001828152506003600084815260200190815260200160002060008201518160000160006101000a81548173ffffffffffffffffffffffffffffffffffffffff021916908373ffffffffffffffffffffffffffffffffffffffff160217905550602082015181600101559050507f09525ebf9fdb953093a3754e1ac6f8d66e30ab00043a37c18b57de5397d048b633836040516112a2929190611f66565b60405180910390a15050565b60008060008060008060008060008981526020019081526020016000206040518060c00160405290816000820160009054906101000a900473ffffffffffffffffffffffffffffffffffffffff1673ffffffffffffffffffffffffffffffffffffffff1673ffffffffffffffffffffffffffffffffffffffff168152602001600182015481526020016002820154815260200160038201548152602001600482015481526020016005820154815250509050806000015181602001518260400151836060015184608001518560a001519650965096509650965096505091939550919395565b6000806000600560008581526020019081526020016000206040518060400160405290816000820160009054906101000a900473ffffffffffffffffffffffffffffffffffffffff1673ffffffffffffffffffffffffffffffffffffffff1673ffffffffffffffffffffffffffffffffffffffff1681526020016001820154815250509050806000015181602001519250925050915091565b603981600a811061143d57600080fd5b016000915054906101000a900473ffffffffffffffffffffffffffffffffffffffff1681565b61146b611c4b565b6039600a806020026040519081016040528092919082600a80156114da576020028201915b8160009054906101000a900473ffffffffffffffffffffffffffffffffffffffff1673ffffffffffffffffffffffffffffffffffffffff1681526020019060010190808311611490575b5050505050905090565b6114ec611c4b565b6007600a806020026040519081016040528092919082600a801561155b576020028201915b8160009054906101000a900473ffffffffffffffffffffffffffffffffffffffff1673ffffffffffffffffffffffffffffffffffffffff1681526020019060010190808311611511575b5050505050905090565b600660009054906101000a900473ffffffffffffffffffffffffffffffffffffffff1681565b611593611c4b565b6011600a806020026040519081016040528092919082600a8015611602576020028201915b8160009054906101000a900473ffffffffffffffffffffffffffffffffffffffff1673ffffffffffffffffffffffffffffffffffffffff16815260200190600101908083116115b8575b5050505050905090565b602581600a811061161c57600080fd5b016000915054906101000a900473ffffffffffffffffffffffffffffffffffffffff1681565b61164a611c4b565b602f600a806020026040519081016040528092919082600a80156116b9576020028201915b8160009054906101000a900473ffffffffffffffffffffffffffffffffffffffff1673ffffffffffffffffffffffffffffffffffffffff168152602001906001019080831161166f575b5050505050905090565b60026020528060005260406000206000915090508060000160009054906101000a900473ffffffffffffffffffffffffffffffffffffffff16908060010154905082565b602f81600a811061171757600080fd5b016000915054906101000a900473ffffffffffffffffffffffffffffffffffffffff1681565b6000821015801561174f575060098211155b61178e576040517f08c379a000000000000000000000000000000000000000000000000000000000815260040161178590611fab565b60405180910390fd5b33601b83600a81106117c9577f4e487b7100000000000000000000000000000000000000000000000000000000600052603260045260246000fd5b0160006101000a81548173ffffffffffffffffffffffffffffffffffffffff021916908373ffffffffffffffffffffffffffffffffffffffff16021790555060405180604001604052803373ffffffffffffffffffffffffffffffffffffffff168152602001828152506002600084815260200190815260200160002060008201518160000160006101000a81548173ffffffffffffffffffffffffffffffffffffffff021916908373ffffffffffffffffffffffffffffffffffffffff160217905550602082015181600101559050507f61638e3097b7583a60bac0b695454a1a30e5a59ce425d6d3c1586cf2b61c25a433836040516118cb929190611f66565b60405180910390a15050565b600080600080600080600160008881526020019081526020016000206040518060a00160405290816000820160009054906101000a900473ffffffffffffffffffffffffffffffffffffffff1673ffffffffffffffffffffffffffffffffffffffff1673ffffffffffffffffffffffffffffffffffffffff168152602001600182015481526020016002820154815260200160038201548152602001600482015481525050905080600001518160200151826040015183606001518460800151955095509550955095505091939590929450565b601181600a81106119bb57600080fd5b016000915054906101000a900473ffffffffffffffffffffffffffffffffffffffff1681565b6000806000600260008581526020019081526020016000206040518060400160405290816000820160009054906101000a900473ffffffffffffffffffffffffffffffffffffffff1673ffffffffffffffffffffffffffffffffffffffff1673ffffffffffffffffffffffffffffffffffffffff1681526020016001820154815250509050806000015181602001519250925050915091565b60036020528060005260406000206000915090508060000160009054906101000a900473ffffffffffffffffffffffffffffffffffffffff16908060010154905082565b60006020528060005260406000206000915090508060000160009054906101000a900473ffffffffffffffffffffffffffffffffffffffff16908060010154908060020154908060030154908060040154908060050154905086565b60046020528060005260406000206000915090508060000160009054906101000a900473ffffffffffffffffffffffffffffffffffffffff16908060010154905082565b601b81600a8110611b6e57600080fd5b016000915054906101000a900473ffffffffffffffffffffffffffffffffffffffff1681565b600781600a8110611ba457600080fd5b016000915054906101000a900473ffffffffffffffffffffffffffffffffffffffff1681565b611bd2611c4b565b601b600a806020026040519081016040528092919082600a8015611c41576020028201915b8160009054906101000a900473ffffffffffffffffffffffffffffffffffffffff1673ffffffffffffffffffffffffffffffffffffffff1681526020019060010190808311611bf7575b5050505050905090565b604051806101400160405280600a90602082028036833780820191505090505090565b600081359050611c7d8161204f565b92915050565b600081359050611c9281612066565b92915050565b600060208284031215611caa57600080fd5b6000611cb884828501611c83565b91505092915050565b60008060008060008060c08789031215611cda57600080fd5b6000611ce889828a01611c83565b9650506020611cf989828a01611c6e565b9550506040611d0a89828a01611c6e565b9450506060611d1b89828a01611c6e565b9350506080611d2c89828a01611c6e565b92505060a0611d3d89828a01611c6e565b9150509295509295509295565b60008060408385031215611d5d57600080fd5b6000611d6b85828601611c83565b9250506020611d7c85828601611c83565b9150509250929050565b6000611d928383611d9e565b60208301905092915050565b611da781612009565b82525050565b611db681612009565b82525050565b611dc581611fd5565b611dcf8184611fed565b9250611dda82611fcb565b8060005b83811015611e0b578151611df28782611d86565b9650611dfd83611fe0565b925050600181019050611dde565b505050505050565b611e1c8161201b565b82525050565b6000611e2f602f83611ff8565b91507f74686520696e7075742073686f756420626520696e636c7564656420696e207460008301527f6865205f696427732072616e67657300000000000000000000000000000000006020830152604082019050919050565b611e9181612045565b82525050565b6000602082019050611eac6000830184611dad565b92915050565b600060a082019050611ec76000830188611dad565b611ed46020830187611e13565b611ee16040830186611e13565b611eee6060830185611e13565b611efb6080830184611e13565b9695505050505050565b600060c082019050611f1a6000830189611dad565b611f276020830188611e13565b611f346040830187611e13565b611f416060830186611e13565b611f4e6080830185611e13565b611f5b60a0830184611e13565b979650505050505050565b6000604082019050611f7b6000830185611dad565b611f886020830184611e88565b9392505050565b600061014082019050611fa56000830184611dbc565b92915050565b60006020820190508181036000830152611fc481611e22565b9050919050565b6000819050919050565b6000600a9050919050565b6000602082019050919050565b600081905092915050565b600082825260208201905092915050565b600061201482612025565b9050919050565b6000819050919050565b600073ffffffffffffffffffffffffffffffffffffffff82169050919050565b6000819050919050565b6120588161201b565b811461206357600080fd5b50565b61206f81612045565b811461207a57600080fd5b5056fea2646970667358221220d8ec52856c649b3a1604eeddf222347148673605ebc5b047566fe137a1a7691264736f6c63430008000033",
  "immutableReferences": {},
  "source": "// pragma solidity >=0.7.0 <0.9.0;\r\npragma solidity >=0.4.25;\r\n\r\ncontract Billige {\r\n    struct Buyer { // \r\n        address buyerAddress;\r\n        bytes32 user_name;\r\n\t\t\t\tbytes32 user_nickname;\r\n\t\t\t\tbytes32 user_email;\r\n        bytes32 user_address;\r\n        bytes32 user_bli;\r\n    }\r\n\r\n    struct Seller{ // !\r\n        address sellerAddress;\r\n        bytes32 user_name;\r\n\t\t\t\tbytes32 user_nickname;\r\n\t\t\t\tbytes32 user_email;\r\n        bytes32 user_address;\r\n    }\r\n\r\n    struct Payment{ // \r\n        address buyerAddress;\r\n        uint date;\r\n    }\r\n\r\n    struct Cancel{ // \r\n        address buyerAddress;\r\n        uint date;\r\n\t\t\t\t//     reason  .\r\n    }\r\n\r\n    struct doPay{\r\n        address managerAddress;\r\n        uint date;\r\n    }\r\n\r\n    struct doCancel{ // \r\n        address managerAddress;\r\n\t\t\t\tuint date;\r\n    }\r\n\r\n    // ID  , ,   Info \r\n    mapping (uint => Buyer) public buyerInfo;\r\n    mapping (uint => Seller) public sellerInfo;\r\n    mapping (uint => Payment) public decidePaymentInfo;\r\n    mapping (uint => Cancel) public decideCancelInfo;\r\n    mapping (uint => doPay) public doPaymentInfo;\r\n    mapping (uint => doCancel) public doCancelInfo;\r\n\r\n    address public owner; //  \r\n    address[10] public buyers; // \r\n    address[10] public sellers; // \r\n    address[10] public decidePayments; // \r\n    address[10] public decideCancels; // \r\n    address[10] public doPayments; //\r\n    address[10] public doCancels; //\r\n\r\n    event LogBuyProduct(address _buyer, uint _id); //  ,  event\r\n    // event LogDeliveryProduct(address _seller, uint _id); //  ,  event.   .\r\n    event LogDecidePayment(address _buyer, uint _id); //  ,  event\r\n    event LogDecideCancel(address _buyer, uint _id); //  ,  event\r\n    event LogPaymentProduct(address _manager, uint _id); //  ,  event\r\n    event LogCancelProduct(address _manager, uint _id); //  ,  event\r\n\r\n    constructor() public {\r\n        owner = msg.sender;\r\n        //msg.sender         , default   \r\n    }\r\n\r\n    // ,    \r\n    // , , , , ,  \r\n    function buyProduct(uint _id, bytes32 _name, bytes32 _nickname, bytes32 _email, bytes32 _address, bytes32 _bli) public payable {\r\n        require(_id >= 0 && _id <= 9, \"the input shoud be included in the _id's ranges\");\r\n        buyers[_id] = msg.sender; //     ,  id  \r\n        buyerInfo[_id] = Buyer(msg.sender, _name, _nickname, _email, _address, _bli); //  \r\n\r\n        payable(address(uint160(owner))).transfer(msg.value); //  \r\n        // address(uint160(owner)).transfer(msg.value); //   msg.value   \r\n        emit LogBuyProduct(msg.sender, _id);\r\n    }\r\n\r\n    //  ,    \r\n\t\t//      .   .\r\n    // function deliveryProduct(uint _id, bytes32 _name, bytes32 _home, uint _post, uint _phone) public payable {\r\n    //     require(_id >= 0 && _id <= 9, \"the input shoud be included in the _id's ranges\");\r\n    //     sellers[_id] = msg.sender;\r\n    //     sellerInfo[_id] = Seller(msg.sender, _name, _home, _post, _phone);\r\n\r\n    //     address(uint160(owner)).transfer(msg.value);\r\n    //     emit LogDeliveryProduct(msg.sender, _id);\r\n    // }\r\n\r\n    //\r\n    function decidePayProduct(uint _id, uint _date) public {\r\n        require(_id >= 0 && _id <= 9, \"the input shoud be included in the _id's ranges\");\r\n        decidePayments[_id] = msg.sender;\r\n        decidePaymentInfo[_id] = Payment(msg.sender, _date);\r\n        //require(msg.sender == address(this), \"to tranfer ether from contract to address\");\r\n        emit LogDecidePayment(msg.sender, _id);\r\n    }\r\n\r\n    //\r\n    function doPayProduct(uint _id, uint _date) public payable {\r\n        require(_id >= 0 && _id <= 9, \"the input shoud be included in the _id's ranges\");\r\n        doPayments[_id] = msg.sender;\r\n        doPaymentInfo[_id] = doPay(msg.sender, _date);\r\n        payable(address(uint160(sellers[_id]))).transfer(msg.value);\r\n        emit LogPaymentProduct(msg.sender, _id);\r\n    }\r\n\r\n    //\r\n    function decideCancelProduct(uint _id, uint _date) public {\r\n        require(_id >= 0 && _id <= 9, \"the input shoud be included in the _id's ranges\");\r\n        decideCancels[_id] = msg.sender;\r\n        decideCancelInfo[_id] = Cancel(msg.sender, _date);\r\n        emit LogDecideCancel(msg.sender, _id);\r\n    }\r\n\r\n    //\r\n    function doCancelProduct(uint _id, uint _date) public payable {\r\n        require(_id >= 0 && _id <= 9, \"the input shoud be included in the _id's ranges\");\r\n        doCancels[_id] = msg.sender;\r\n        doCancelInfo[_id] = doCancel(msg.sender, _date);\r\n        payable(address(uint160(buyers[_id]))).transfer(msg.value);\r\n        emit LogCancelProduct(msg.sender, _id);\r\n    }\r\n\r\n    // \r\n    function getBuyerInfo(uint _id) public view returns (address, bytes32, bytes32, bytes32, bytes32, bytes32) {\r\n        Buyer memory buyer = buyerInfo[_id];\r\n        return (buyer.buyerAddress, buyer.user_name, buyer.user_nickname, buyer.user_email, buyer.user_address, buyer.user_bli);\r\n    }\r\n\r\n    //  \r\n    function getAllBuyers() public view returns (address[10] memory) {\r\n        return buyers;\r\n    }\r\n\r\n    // \r\n    function getSellerInfo(uint _id) public view returns (address, bytes32, bytes32, bytes32, bytes32) {\r\n        Seller memory seller = sellerInfo[_id];\r\n        return (seller.sellerAddress, seller.user_name, seller.user_nickname, seller.user_email, seller.user_address);\r\n    }\r\n\r\n    //  \r\n    function getAllSellers() public view returns (address[10] memory) {\r\n        return sellers;\r\n    }\r\n\r\n    // \r\n    function getPaymentInfo(uint _id) public view returns (address, uint) {\r\n        Payment memory payment = decidePaymentInfo[_id];\r\n        return (payment.buyerAddress, payment.date);\r\n    }\r\n\r\n    //  \r\n    function getAllPayments() public view returns (address[10] memory) {\r\n        return decidePayments;\r\n    }\r\n\r\n    // \r\n    function getCancelInfo(uint _id) public view returns (address, uint) {\r\n        Cancel memory cancel = decideCancelInfo[_id];\r\n        return (cancel.buyerAddress, cancel.date);\r\n    }\r\n\r\n    //  \r\n    function getAllCancels() public view returns (address[10] memory) {\r\n        return decideCancels;\r\n    }\r\n\r\n    //\r\n    function getdoPaymentInfo(uint _id) public view returns (address, uint) {\r\n        doPay memory dopay = doPaymentInfo[_id];\r\n        return (dopay.managerAddress, dopay.date);\r\n    }\r\n\r\n    //  \r\n    function getAlldoPayments() public view returns (address[10] memory) {\r\n        return doPayments;\r\n    }\r\n\r\n    //\r\n    function getdoCancelInfo(uint _id) public view returns (address, uint) {\r\n        doCancel memory docancel = doCancelInfo[_id];\r\n        return (docancel.managerAddress, docancel.date);\r\n    }\r\n\r\n    //  \r\n    function getAlldoCancels() public view returns (address[10] memory) {\r\n        return doCancels;\r\n    }\r\n}\r\n",
  "sourcePath": "C:\\Users\\multicampus\\Desktop\\blockchain_gitlab\\3\\blockchain\\contracts\\Billige.sol",
  "compiler": {
    "name": "solc",
    "version": "0.8.0+commit.c7dfd78e.Emscripten.clang"
  },
  "schemaVersion": "3.4.3",
  "updatedAt": "2021-09-30T02:37:39.840Z",
  "devdoc": {
    "kind": "dev",
    "methods": {},
    "version": 1
  },
  "userdoc": {
    "kind": "user",
    "methods": {},
    "version": 1
  }
}