{
  "contractName": "TEST",
  "abi": [
    {
      "constant": true,
      "inputs": [],
      "name": "name",
      "outputs": [
        {
          "name": "",
          "type": "string"
        }
      ],
      "payable": false,
      "stateMutability": "view",
      "type": "function"
    },
    {
      "constant": true,
      "inputs": [],
      "name": "INITIAL_SUPPLY",
      "outputs": [
        {
          "name": "",
          "type": "uint256"
        }
      ],
      "payable": false,
      "stateMutability": "view",
      "type": "function"
    },
    {
      "constant": true,
      "inputs": [],
      "name": "decimals",
      "outputs": [
        {
          "name": "",
          "type": "uint256"
        }
      ],
      "payable": false,
      "stateMutability": "view",
      "type": "function"
    },
    {
      "constant": true,
      "inputs": [],
      "name": "symbol",
      "outputs": [
        {
          "name": "",
          "type": "string"
        }
      ],
      "payable": false,
      "stateMutability": "view",
      "type": "function"
    }
  ],
  "bytecode": "0x608060405234801561001057600080fd5b5061025f806100206000396000f3fe608060405234801561001057600080fd5b5060043610610069576000357c01000000000000000000000000000000000000000000000000000000009004806306fdde031461006e5780632ff2e9dc146100f1578063313ce5671461010f57806395d89b411461012d575b600080fd5b6100766101b0565b6040518080602001828103825283818151815260200191508051906020019080838360005b838110156100b657808201518184015260208101905061009b565b50505050905090810190601f1680156100e35780820380516001836020036101000a031916815260200191505b509250505060405180910390f35b6100f96101e9565b6040518082815260200191505060405180910390f35b6101176101f5565b6040518082815260200191505060405180910390f35b6101356101fa565b6040518080602001828103825283818151815260200191508051906020019080838360005b8381101561017557808201518184015260208101905061015a565b50505050905090810190601f1680156101a25780820380516001836020036101000a031916815260200191505b509250505060405180910390f35b6040805190810160405280600a81526020017f5445535420746f6b656e0000000000000000000000000000000000000000000081525081565b6012600a0a6103e80281565b601281565b6040805190810160405280600481526020017f54455354000000000000000000000000000000000000000000000000000000008152508156fea165627a7a72305820c87237249497266a82f2c572cf12cd17df7b817262edf9e62c93e4c3bd4610930029",
  "source": "pragma solidity ^0.5.2; // solidity 0.5.2 버전을 사용\r\n\r\ncontract TEST {  // contract 이름을 TEST로 지정\r\n  string public constant name = \"TEST token\"; // 토큰의 이름은 TEST token\r\n  string public constant symbol = \"TEST\"; // TEST라는 이름을 사용\r\n  uint public constant decimals = 18; // 소수점 18자리까지 사용하겠음\r\n  uint public constant INITIAL_SUPPLY = 1000 * 10 ** decimals; // 초기 발행량은 1000.000000000000000000 (소수점 18자리까지사용)\r\n  string constant test = \"You can not see this\"; // public 표시가 없는 경우 해당 문구 볼 수 없음.\r\n}\r\n",
  "sourcePath": "C:\\Users\\multicampus\\Desktop\\blockchain_gitlab\\3\\blockchain\\contracts\\Test.sol",
  "compiler": {
    "name": "solc",
    "version": "0.5.2+commit.1df8f40c.Emscripten.clang"
  },
  "schemaVersion": "3.4.3",
  "updatedAt": "2021-09-26T15:30:55.367Z",
  "networkType": "ethereum",
  "devdoc": {
    "methods": {}
  },
  "userdoc": {
    "methods": {}
  }
}